:100000000C9462000C948A000C948A000C948A0070
:100010000C948A000C948A000C948A000C948A0038
:100020000C948A000C948A000C948A000C948A0028
:100030000C948A000C948A000C948A000C948A0018
:100040000C943B030C948A000C948A000C948A0054
:100050000C948A000C948A000C948A000C948A00F8
:100060000C948A000C948A000000000024002700F1
:100070002A0000000000250028002B0000000008D6
:10008000000201000003040700000000000000005F
:1000900000000000230026002900040404040404D6
:1000A0000404020202020202030303030303010227
:1000B00004081020408001020408102001020408F6
:1000C0001020710511241FBECFEFD8E0DEBFCDBFD9
:1000D00011E0A0E0B1E0EAEEFFE002C005900D9271
:1000E000A436B107D9F721E0A4E6B1E001C01D9222
:1000F000A938B207E1F710E0C2E6D0E004C02197CA
:10010000FE010E94ED07C136D107C9F70E94CA035C
:100110000C94F3070C940000AF92BF92CF92DF9241
:10012000EF92FF920F931F93CF93DF936C017B01AC
:100130008B01040F151FEB015E01AE18BF08C0173D
:10014000D10759F06991D601ED91FC910190F081B0
:10015000E02DC6010995892B79F7C501DF91CF9173
:100160001F910F91FF90EF90DF90CF90BF90AF90D5
:10017000089590E0FC01E458FF4F2491FC01E25502
:10018000FF4F3491FC01E656FF4FE491EE23C9F096
:10019000222339F0233001F1A8F4213019F1223063
:1001A00029F1F0E0EE0FFF1FEE58FF4FA591B4913B
:1001B0008FB7F894EC91611126C030953E233C93A3
:1001C0008FBF08952730A9F02830C9F0243049F7AF
:1001D000809180008F7D03C0809180008F77809315
:1001E0008000DFCF84B58F7784BDDBCF84B58F7D72
:1001F000FBCF8091B0008F778093B000D2CF8091F9
:10020000B0008F7DF9CF3E2BDACFCF93DF9390E014
:10021000FC01E255FF4F249186569F4FFC018491CB
:100220008823D1F090E0880F991FFC01E859FF4F17
:10023000A591B491FC01EE58FF4FC591D491611185
:100240000EC09FB7F8948C91E22FE0958E238C938B
:100250002881E223E8839FBFDF91CF9108958FB774
:10026000F894EC91E22BEC938FBFF6CF3FB7F89464
:100270008091690190916A01A0916B01B0916C012C
:1002800026B5A89B05C02F3F19F00196A11DB11DF1
:100290003FBFBA2FA92F982F8827BC01CD01620F2D
:1002A000711D811D911D42E0660F771F881F991FE8
:1002B0004A95D1F708958F929F92AF92BF92CF92B5
:1002C000DF92EF92FF924B015C010E9436016B01BD
:1002D0007C010E9436016C197D098E099F09683ED8
:1002E000734081059105A8F321E0821A9108A108C5
:1002F000B10888EEC80E83E0D81EE11CF11C811401
:100300009104A104B10429F7FF90EF90DF90CF9002
:10031000BF90AF909F908F900895089590E080E0F7
:100320000895FC0101900020E9F73197AF01481BC7
:10033000590BBC0181E791E00C948C008F929F9245
:10034000AF92BF920F931F93CF93DF93CDB7DEB7DA
:10035000A1970FB6F894DEBF0FBECDBF19A24230F1
:1003600008F44AE08E010F5D1F4F842E912CB12CB2
:10037000A12CA50194010E94CB07E62FB901CA0167
:10038000EA30F4F4E05DD801EE938D01232B242BA9
:10039000252B79F790E080E0109719F0CD010E94AD
:1003A0009101A1960FB6F894DEBF0FBECDBFDF91CD
:1003B000CF911F910F91BF90AF909F908F90089514
:1003C000E95CE1CFCF93DF93EC0160E08E810E9486
:1003D000B90061E08E810E94B90060E08E810E94C8
:1003E000B9008BE891E00197F1F7DF91CF91089583
:1003F000CF92DF92EF92FF920F931F93CF93DF93F1
:100400006C017C0187E0E80EF11CD0E0C0E0062F13
:1004100010E0B8010C2E02C0759567950A94E2F7BA
:100420006170F70181917F010E94B9002196C4306B
:10043000D10579F7C601DF91CF911F910F91FF9000
:10044000EF90DF90CF900C94E201CF92DF92EF9289
:10045000FF920F931F93CF93DF93EC01F62E642F3F
:100460008C810E94B9008D818F3F19F060E00E945D
:10047000B9000F2D10E08F8584FF25C06E0187E045
:10048000C80ED11CF12CE12CB8010E2C02C07595C0
:1004900067950A94E2F76170F60181916F010E94FD
:1004A000B900FFEFEF1AFF0A88E0E816F10461F7E0
:1004B000CE01DF91CF911F910F91FF90EF90DF90D0
:1004C000CF900C94E201B80184E0759567958A9508
:1004D000E1F7CE010E94F8016F2DCE01DF91CF919F
:1004E0001F910F91FF90EF90DF90CF900C94F80147
:1004F00040E0682F81E791E00C94250281E00E94A2
:1005000078028BE39FE10197F1F70895CF93DF9392
:10051000823029F4909180019860909380018093BB
:1005200084011092850180E48093860180E18093AC
:10053000870180E58093880161E0809175010E94C8
:100540000501809176018F3F19F061E00E9405015D
:1005500061E0809177010E940501C1E7D1E09E0131
:10056000215731408091800184FD0BC084E090E0F0
:1005700021962817390744F461E08E810E94050115
:10058000EECF88E090E0F4CF8BE39DE00197F1F7A8
:1005900060E0809175010E94B90060E08091770170
:1005A0000E94B900809176018F3F19F060E00E94AF
:1005B000B9008091800184FD34C063E081E791E05F
:1005C0000E94F801CBE4D6E4CE010197F1F763E095
:1005D00081E791E00E94F8012197F1F763E081E75C
:1005E00091E00E94F80183E592E00197F1F762E063
:1005F00081E791E00E94F8018091800180620E9471
:10060000780284E0809381018CE00E9478020E944D
:100610007E0282E08093820186E0DF91CF910C948C
:10062000780280620E9478028BE496E40197F1F7E9
:100630008091800180620E94780283E592E00197B8
:10064000F1F78091800180620E947802D5CFE0911D
:100650008401E23040F4E150F0E0EF58FE4F84892D
:1006600080680C947802E1E0F7CF41E00E94250217
:1006700081E090E008951F920F920FB60F9211241F
:100680002F933F938F939F93AF93BF938091650177
:1006900090916601A0916701B09168013091640169
:1006A00023E0230F2D3758F50196A11DB11D20938E
:1006B00064018093650190936601A0936701B093F4
:1006C00068018091690190916A01A0916B01B091DC
:1006D0006C010196A11DB11D8093690190936A017F
:1006E000A0936B01B0936C01BF91AF919F918F91DB
:1006F0003F912F910F900FBE0F901F90189526E8F5
:10070000230F0296A11DB11DD2CFCF92DF92EF929F
:10071000FF920F931F93E82FF92F05C00150110985
:100720002109310961F1908196239417B9F305C02D
:10073000015011092109310911F190819623941377
:10074000F7CFC12CD12CE12CF12C0AC08FEFC81AA5
:10075000D80AE80AF80A0C151D052E053F0579F0A0
:1007600080818623841791F36C2D7D2D8E2D9F2DF6
:100770001F910F91FF90EF90DF90CF90089560E070
:1007800070E080E090E01F910F91FF90EF90DF907C
:10079000CF900895789484B5826084BD84B58160DB
:1007A00084BD85B5826085BD85B5816085BD80913C
:1007B0006E00816080936E001092810080918100B4
:1007C00082608093810080918100816080938100AC
:1007D000809180008160809380008091B10084606E
:1007E0008093B1008091B00081608093B0008091CF
:1007F0007A00846080937A0080917A00826080938E
:100800007A0080917A00816080937A0080917A00EA
:10081000806880937A001092C10082E00E94860274
:1008200061E082E10E94050160E083E10E94050130
:1008300061E084E10E9405010E9427038CE091E0C1
:100840000E94910160ED77E080E090E00E945B0102
:10085000C3E0D0E090E0292E90E0392E0E947E0285
:1008600060E084E10E94B90060E082E10E94B9008A
:10087000CE010197F1F761E082E10E94B90083E2C5
:1008800090E00197F1F760E082E10E94B900CE01AB
:100890000197F1F7E1ECF0E06491EDEAF0E084918A
:1008A000E82FF0E0EE0FFF1FE057FF4F8591949186
:1008B00000E412E42FE030E0462F0E94850361152A
:1008C00071058105910529F06F5F7F4F8F4F9F4F15
:1008D0009F700E94A20620E030E04AEA53E40E94A2
:1008E000590720E030E44CE956E40E940106609389
:1008F0006D0170936E0180936F01909370010E945F
:100900007E020E94270382E291E00E94910120E092
:1009100030E048EC52E460916D0170916E0180917D
:100920006F01909170010E9401066B017C014B01E7
:100930005C01AC019B010E94C6078823B9F18EE2DD
:1009400091E00E9491018AE391E00E94910168EE9A
:1009500073E080E090E00E945B0120E030E040E244
:1009600052E460916D0170916E0180916F019091E0
:1009700070010E94FC0587FFAFC061E084E10E9426
:10098000B9000E947E020E9427038DE391E00E943D
:10099000910160ED77E080E090E00E945B0121141E
:1009A000310409F45BCF0E94000058CF26013701C3
:1009B000E89477F82FEF3FEF4FE75FE7C301B2010D
:1009C0000E94C60781110DC02FEF3FEF4FE75FE791
:1009D000C301B2010E94FC0518161CF482E391E0E9
:1009E000B0CF2FEF3FEF4FE75FE4C701B6010E94A2
:1009F000540718161CF486E391E0A3CF2FEF3FEFC6
:100A00004FE75FECC701B6010E94FC0587FDF3CFFD
:100A100020E030E0A901C701B6010E94FC0587FF74
:100A20000CC041E06DE281E791E00E9425024601A1
:100A30005701B7FAB094B7F8B0942AE037ED43EA1B
:100A40005BE3C501B4010E9490054B015C010E946B
:100A500073066B017C010E94A2069B01AC01C501DB
:100A6000B4010E948F054B015C014AE0C701B60149
:100A70000E949E0141E06EE281E791E00E94250222
:100A800020E030E040E251E4C501B4010E94590782
:100A90004B015C010E9473066B01F12CE12C4AE0D2
:100AA000C701B6010E949E01C701B6010E94A206BD
:100AB0009B01AC01C501B4010E948F0520E030E02C
:100AC00040E251E40E9459070E94730690E080E0E2
:100AD0004AE00E949E0137CF60E084E10E94B900A5
:100AE00058CFE1E7F1E01382128284E091E0918334
:100AF000808382E084838FEF858383E0868384E034
:100B0000878385E0808786E0818787E082871386F8
:100B1000148615861686178681E00C948602505836
:100B2000BB27AA270E94A7050C941A070E940C074E
:100B300038F00E94130720F039F49F3F19F426F48F
:100B40000C9409070EF4E095E7FB0C940307E92FDA
:100B50000E942B0758F3BA1762077307840795079B
:100B600020F079F4A6F50C944D070EF4E0950B2EC9
:100B7000BA2FA02D0B01B90190010C01CA01A001EF
:100B80001124FF27591B99F0593F50F4503E68F14A
:100B90001A16F040A22F232F342F4427585FF3CF8B
:100BA000469537952795A795F0405395C9F77EF45C
:100BB0001F16BA0B620B730B840BBAF09150A1F0A5
:100BC000FF0FBB1F661F771F881FC2F70EC0BA0F2B
:100BD000621F731F841F48F4879577956795B795B3
:100BE000F7959E3F08F0B0CF9395880F08F09927AE
:100BF000EE0F9795879508950E94DF0608F481E02F
:100C000008950E9415060C941A070E94130758F0C5
:100C10000E940C0740F029F45F3F29F00C94030771
:100C200051110C944E070C9409070E942B0768F38E
:100C30009923B1F3552391F3951B550BBB27AA2795
:100C400062177307840738F09F5F5F4F220F331FCF
:100C5000441FAA1FA9F335D00E2E3AF0E0E832D097
:100C600091505040E695001CCAF72BD0FE2F29D09A
:100C7000660F771F881FBB1F261737074807AB076C
:100C8000B0E809F0BB0B802DBF01FF2793585F4FE1
:100C90003AF09E3F510578F00C9403070C944E07F0
:100CA0005F3FE4F3983ED4F3869577956795B795C3
:100CB000F7959F5FC9F7880F911D9695879597F9CE
:100CC0000895E1E0660F771F881FBB1F6217730747
:100CD0008407BA0720F0621B730B840BBA0BEE1F5C
:100CE00088F7E09508950E94330788F09F5798F0A1
:100CF000B92F9927B751B0F0E1F0660F771F881F21
:100D0000991F1AF0BA95C9F714C0B13091F00E943A
:100D10004D07B1E008950C944D07672F782F882771
:100D2000B85F39F0B93FCCF3869577956795B39561
:100D3000D9F73EF490958095709561957F4F8F4FD0
:100D40009F4F0895E89409C097FB3EF490958095D5
:100D5000709561957F4F8F4F9F4F9923A9F0F92F81
:100D600096E9BB279395F695879577956795B795FF
:100D7000F111F8CFFAF4BB0F11F460FF1BC06F5FE5
:100D80007F4F8F4F9F4F16C0882311F096E911C0F7
:100D9000772321F09EE8872F762F05C0662371F018
:100DA00096E8862F70E060E02AF09A95660F771F2C
:100DB000881FDAF7880F9695879597F90895990F08
:100DC0000008550FAA0BE0E8FEEF16161706E80715
:100DD000F907C0F012161306E407F50798F0621B36
:100DE000730B840B950B39F40A2661F0232B242B0B
:100DF000252B21F408950A2609F4A140A6958FEF2A
:100E0000811D811D089597F99F6780E870E060E07B
:100E100008959FEF80EC089500240A941616170693
:100E200018060906089500240A94121613061406DB
:100E300005060895092E0394000C11F4882352F03E
:100E4000BB0F40F4BF2B11F460FF04C06F5F7F4FF6
:100E50008F4F9F4F089557FD9058440F551F59F0DD
:100E60005F3F71F04795880F97FB991F61F09F3F97
:100E700079F087950895121613061406551FF2CFC0
:100E80004695F1DF08C0161617061806991FF1CF10
:100E900086957105610508940895E894BB27662737
:100EA0007727CB0197F908950E94DF0608F48FEFAA
:100EB00008950E946C070C941A070E940C0738F0E2
:100EC0000E94130720F0952311F00C9403070C9453
:100ED000090711240C944E070E942B0770F3959F6D
:100EE000C1F3950F50E0551F629FF001729FBB2721
:100EF000F00DB11D639FAA27F00DB11DAA1F649FBD
:100F00006627B00DA11D661F829F2227B00DA11D6F
:100F1000621F739FB00DA11D621F839FA00D611DF5
:100F2000221F749F3327A00D611D231F849F600D16
:100F3000211D822F762F6A2F11249F5750409AF03F
:100F4000F1F088234AF0EE0FFF1FBB1F661F771FCB
:100F5000881F91505040A9F79E3F510580F00C9496
:100F600003070C944E075F3FE4F3983ED4F3869555
:100F700077956795B795F795E7959F5FC1F7FE2B36
:100F8000880F911D9695879597F908950E94DF0621
:100F9000880B990B0895A1E21A2EAA1BBB1BFD0119
:100FA0000DC0AA1FBB1FEE1FFF1FA217B307E40748
:100FB000F50720F0A21BB30BE40BF50B661F771FA0
:100FC000881F991F1A9469F7609570958095909580
:100FD0009B01AC01BD01CF010895EE0FFF1F0590ED
:0A0FE000F491E02D0994F894FFCF7E
:100FEA000000000035038C008E018D0120576174CA
:100FFA006572204C6576656C204465746563746F10
:10100A00720044697374616E6365203A20006E61F0
:10101A006E00696E66006F766600206D0057617417
:10102A006572206C6576656C2069732072697369D4
:10103A006E672E204B696E646C79206576616375E4
:04104A006174650068
:00000001FF
